011000017008800000TOMATE EXTRA CAIXA                                000000000000000001000000000000000000000000000000000000000000000000000000000000
010000018000549005MANDIOCA COZ.MOURO K                              000000000000000011000000000000000000000000000000000000000000000000000000000000
010000031000399000BETERRABA A GRANEL                                000000000000000001000000000000000000000000000000000000000000000000000000000000
010000033000699000MELAO                                             000000000000000001000000000000000000000000000000000000000000000000000000000000
011000035015000030BEIJINHO NA BANDEJA                               000000000000000011000000000000000000000000000000000000000000000000000000000000
011000036000499060BOMBOM RECH.CEREJA                                000000000000000011000000000000000000000000000000000000000000000000000000000000
010000042001099007PAO DOCE/UVA PASSAS                               000000000000000011000000000000000000000000000000000000000000000000000000000000
011000043000299030BISC.POLV.AZEDO TEMP                              000000000000000011000000000000000000000000000000000000000000000000000000000000
011000044000399030BISC.POLV.TEMPERADO                               000000000000000011000000000000000000000000000000000000000000000000000000000000
011000046000065025BANANINHA DA SORTE                                000000000000000011000000000000000000000000000000000000000000000000000000000000
010000048000899000QUIABO                                            000000000000000001000000000000000000000000000000000000000000000000000000000000
011000049000150003BOLINHO DE PEIXE                                  000000000000000011000000000000000000000000000000000000000000000000000000000000
011000050001750090KIBE MINI 50UN                                    000000000000000011000000000000000000000000000000000000000000000000000000000000
010000051001450006BOLO DE COCO/FUBA                                 000000000000000011000000000000000000000000000000000000000000000000000000000000
011000052005500090CALDO CONG.FEIJAO                                 000000000000000011000000000000000000000000000000000000000000000000000000000000
011000054011000005PORCAO NHOQUE/PA                                  000000000000000011000000000000000000000000000000000000000000000000000000000000
011000057000150040BOLINHO PEIXE                                     000000000000000011000000000000000000000000000000000000000000000000000000000000
011000058000199090CALDO CONG.BATATA                                 000000000000000011000000000000000000000000000000000000000000000000000000000000
010000060001099045CROQUETE DE CARNE KG                              000000000000000011000000000000000000000000000000000000000000000000000000000000
011000063000699090NHOQUE + MOL.BOLONHE                              000000000000000011000000000000000000000000000000000000000000000000000000000000
010000065001199007CAKE CREM. CENO/CHOC                              000000000000000011000000000000000000000000000000000000000000000000000000000000
011000066000150007CUP CAKE PACOCA UN                                000000000000000011000000000000000000000000000000000000000000000000000000000000
011000067000170007CUP CAKE MORANGO UN                               000000000000000011000000000000000000000000000000000000000000000000000000000000
011000068000175007CUP CAKE CENOURA UN                               000000000000000011000000000000000000000000000000000000000000000000000000000000
010000069001299060CHIPA CONG.CALABREZA                              000000000000000011000000000000000000000000000000000000000000000000000000000000
011000070000399060MOLHO BOLONHESA 300G                              000000000000000011000000000000000000000000000000000000000000000000000000000000
010000071001299060CHIPA CONG.AZEITONA                               000000000000000011000000000000000000000000000000000000000000000000000000000000
010000072001299060CHIPA CONG.ALHO                                   000000000000000011000000000000000000000000000000000000000000000000000000000000
010000073001299060CHIPA CONG.SALSA                                  000000000000000011000000000000000000000000000000000000000000000000000000000000
010000074001299060CHIPA CONG.QUEIJO                                 000000000000000011000000000000000000000000000000000000000000000000000000000000
010000075001299060CHIPA CONG.PIMENTA                                000000000000000011000000000000000000000000000000000000000000000000000000000000
011000076000275015BEM CASADO CHO/L.CON                              000000000000000011000000000000000000000000000000000000000000000000000000000000
010000086002999000ALHO A GRANEL                                     000000000000000001000000000000000000000000000000000000000000000000000000000000
010000090001199010CAKE FRUTAS CRISTAL                               000000000000000011000000000000000000000000000000000000000000000000000000000000
011000091000195007CUP CAKE CHOC/COCO                                000000000000000011000000000000000000000000000000000000000000000000000000000000
011000092000299030PALITO FRANCES 150GR                              000000000000000011000000000000000000000000000000000000000000000000000000000000
010000093000999000AMEIXA FRUTA                                      000000000000000001000000000000000000000000000000000000000000000000000000000000
010000095003000005TORTA FRIA PAO FORMA                              000000000000000011000000000000000000000000000000000000000000000000000000000000
011000096001000090CANELONE DE FRANGO                                000000000000000011000000000000000000000000000000000000000000000000000000000000
011000098000499060CHOC.AMARGO C/AVELA                               000000000000000011000000000000000000000000000000000000000000000000000000000000
010000099002000005PAO SIRIO PEITO PERU                              000000000000000011000000000000000000000000000000000000000000000000000000000000
011000100000599010PAO LIGHT DE QUINUA                               000000000000000011000000000000000000000000000000000000000000000000000000000000
010000101001999010TORTA TRUFADA 2 CHOC                              000000000000000011000000000000000000000000000000000000000000000000000000000000
010000103002550015TORTA HOLANDESA KG                                000000000000000011000000000000000000000000000000000000000000000000000000000000
011000104000699060TORTA QUICHE FGO/PUR                              000000000000000011000000000000000000000000000000000000000000000000000000000000
011000108000399060BOLINHO DE PEIXE                                  000000000000000011000000000000000000000000000000000000000000000000000000000000
010000109000299000SACOLAO                                           000000000000000001000000000000000000000000000000000000000000000000000000000000
011000113000139010C.CAKE SIMPLES CHOC                               000000000000000011000000000000000000000000000000000000000000000000000000000000
011000115000100010DONUTS CREME/CHOC.                                000000000000000011000000000000000000000000000000000000000000000000000000000000
011000117000199007BOLO ROLO GOIABADA                                000000000000000011000000000000000000000000000000000000000000000000000000000000
010000118002300030TORRADA TEMP.PAO DOC                              000000000000000011000000000000000000000000000000000000000000000000000000000000
011000119000199010MOUSSE MORANGO                                    000000000000000011000000000000000000000000000000000000000000000000000000000000
011000120000199010MOUSSE CREME                                      000000000000000011000000000000000000000000000000000000000000000000000000000000
011000121000199010MOUSSE MORAN/CHOCOL.                              000000000000000011000000000000000000000000000000000000000000000000000000000000
010000123001399030AIPO - MANDIOQUINHA                               000000000000000011000000000000000000000000000000000000000000000000000000000000
011000125000499010TORRESMINHO 80 GR                                 000000000000000011000000000000000000000000000000000000000000000000000000000000
011000129000250007SETE FRUTAS UN                                    000000000000000011000000000000000000000000000000000000000000000000000000000000
010000130000249000PACOTE CEBOLA KG                                  000000000000000001000000000000000000000000000000000000000000000000000000000000
011000131000399002BOLINHO FRITO VARIAD                              000000000000000011000000000000000000000000000000000000000000000000000000000000
011000133006895020DOC.OLHO DE SOGRO                                 000000000000000011000000000000000000000000000000000000000000000000000000000000
011000137000449090M.PIZZA LOMBO CANADE                              000000000000000011000000000000000000000000000000000000000000000000000000000000
011000139000499060BOMBOM RECH.NOZES                                 000000000000000011000000000000000000000000000000000000000000000000000000000000
011000140000299012PAVE DE ABACAXI UN                                000000000000000011000000000000000000000000000000000000000000000000000000000000
010000141001399005CROISSANT DE FRANGO                               000000000000000011000000000000000000000000000000000000000000000000000000000000
011000142001557000CROISSANT SALSICHA                                000000000000000001000000000000000000000000000000000000000000000000000000000000
011000143002368000CROISSANT PRES/MUSS                               000000000000000001000000000000000000000000000000000000000000000000000000000000
010000144001399000CROISSANT L.CON/GOTA                              000000000000000001000000000000000000000000000000000000000000000000000000000000
010000145001399005CROISSANT BRIGADEIRO                              000000000000000011000000000000000000000000000000000000000000000000000000000000
011000146001011000PAO DE QUEIJOC/FRANG                              000000000000000001000000000000000000000000000000000000000000000000000000000000
010000147000899000COCO SECO                                         000000000000000001000000000000000000000000000000000000000000000000000000000000
010000148001499003BISC.QUEIJO TEMPERAD                              000000000000000011000000000000000000000000000000000000000000000000000000000000
010000149002999000PALITO QUEIJO/CALABR                              000000000000000001000000000000000000000000000000000000000000000000000000000000
011000150000499060BISCOITO 3 QUEIJOS                                000000000000000011000000000000000000000000000000000000000000000000000000000000
011000151000999008PAO LIGHT 10 GRAOS                                000000000000000011000000000000000000000000000000000000000000000000000000000000
010000152001699000SONHO AMERICANO KG                                000000000000000001000000000000000000000000000000000000000000000000000000000000
010000153001350007PAOZINHO VITAMINADO                               000000000000000011000000000000000000000000000000000000000000000000000000000000
010000154001299000CAQUI FRUTA                                       000000000000000001000000000000000000000000000000000000000000000000000000000000
010000155002599007PAOZINHO LEITE NINHO                              000000000000000011000000000000000000000000000000000000000000000000000000000000
011000156000299090BISC.QUEIJO TEMPERAD                              000000000000000011000000000000000000000000000000000000000000000000000000000000
010000158001550010CAKE FLORESTA NEGRA                               000000000000000011000000000000000000000000000000000000000000000000000000000000
010000159001649005TORTA DE NECTARINA                                000000000000000011000000000000000000000000000000000000000000000000000000000000
011000160000599060CANELONE CONGELADO                                000000000000000011000000000000000000000000000000000000000000000000000000000000
010000162001990000PAO QUEIJO TEM/CALAB                              000000000000000001000000000000000000000000000000000000000000000000000000000000
011000163000450090PAO QUEIJO CALAB.BDJ                              000000000000000011000000000000000000000000000000000000000000000000000000000000
011000165000299010DELICIA PESSEGO UN                                000000000000000011000000000000000000000000000000000000000000000000000000000000
011000167000399000MINI TORTA LEG/CARNE                              000000000000000001000000000000000000000000000000000000000000000000000000000000
010000168001299007ALMONDEGA FRANGO KG                               000000000000000011000000000000000000000000000000000000000000000000000000000000
011000169002500010DOC.FESTA  50 UN                                  000000000000000011000000000000000000000000000000000000000000000000000000000000
011000170003500010DOC.L.NINHO DEC.50UN                              000000000000000011000000000000000000000000000000000000000000000000000000000000
011000171000250090MINI LAS.BOLONHESA                                000000000000000011000000000000000000000000000000000000000000000000000000000000
011000172000399090MINI LASANHA FRANGO                               000000000000000011000000000000000000000000000000000000000000000000000000000000
011000173000799090ESCOND.FRANGO 550GR                               000000000000000011000000000000000000000000000000000000000000000000000000000000
011000174000099003FATIA PUDIM OFERTA                                000000000000000011000000000000000000000000000000000000000000000000000000000000
011000175000499030BRIG.FERRERO ROCHER                               000000000000000011000000000000000000000000000000000000000000000000000000000000
010000176001799030QUEIJO FRESCO MINAS                               000000000000000011000000000000000000000000000000000000000000000000000000000000
010000178000349000CAMBOTIA                                          000000000000000001000000000000000000000000000000000000000000000000000000000000
011000180001750090RISOLES FRANGO 50UN                               000000000000000011000000000000000000000000000000000000000000000000000000000000
011000181001499090BOLINHO SALSICH.50UN                              000000000000000011000000000000000000000000000000000000000000000000000000000000
011000182000499045BOMBOM RECH.MORANGO                               000000000000000011000000000000000000000000000000000000000000000000000000000000
010000185001999000GENGIBRE                                          000000000000000001000000000000000000000000000000000000000000000000000000000000
010000186001850020PONTA PEITO TEMPERAD                              000000000000000011000000000000000000000000000000000000000000000000000000000000
010000187000899010PEITO FRANGO TEMPER.                              000000000000000011000000000000000000000000000000000000000000000000000000000000
010000188001949010COXAO DURO TEMPERADO                              000000000000000011000000000000000000000000000000000000000000000000000000000000
010000189001899015ESPETINHO FGO/BACON                               000000000000000011000000000000000000000000000000000000000000000000000000000000
010000190001899015ESPETINHO BOVINO KG                               000000000000000011000000000000000000000000000000000000000000000000000000000000
011000191000990045P.FOUR C/GOIABA 420G                              000000000000000011000000000000000000000000000000000000000000000000000000000000
010000192001699000KIWI                                              000000000000000001000000000000000000000000000000000000000000000000000000000000
010000193002050020CAPA COXAO MOLE TEMP                              000000000000000011000000000000000000000000000000000000000000000000000000000000
010000194001999000FRALDINHA FRIGORIF.                               000000000000000001000000000000000000000000000000000000000000000000000000000000
011000196000250015BOMBINHA RECHEADA                                 000000000000000011000000000000000000000000000000000000000000000000000000000000
010000203001470030LING.SADIA COZ.DEFKG                              000000000000000011000000000000000000000000000000000000000000000000000000000000
010000204006725045COPA LOMBO KG                                     000000000000000011000000000000000000000000000000000000000000000000000000000000
011000205000250000MINI TORTELETE BDJ                                000000000000000001000000000000000000000000000000000000000000000000000000000000
011000206000075007TORTELETE UN                                      000000000000000011000000000000000000000000000000000000000000000000000000000000
010000207004590000LOMBO TEMP. OLHOSDAG                              000000000000000001000000000000000000000000000000000000000000000000000000000000
010000208001299000MACA ARGENTINA                                    000000000000000001000000000000000000000000000000000000000000000000000000000000
010000209002169010CUPIM TEMP.FRIGR.KG                               000000000000000011000000000000000000000000000000000000000000000000000000000000
010000210002799060BACON FATIADO KG                                  000000000000000011000000000000000000000000000000000000000000000000000000000000
011000211001599007TORTA MARACUJA UN                                 000000000000000011000000000000000000000000000000000000000000000000000000000000
010000212002799000QUEIJO MUSS.KAROL KG                              000000000000000001000000000000000000000000000000000000000000000000000000000000
010000213015000006APRESUNTADO SADIA KG                              000000000000000011000000000000000000000000000000000000000000000000000000000000
011000214005000002MARMITEX 6 ITENS                                  000000000000000011000000000000000000000000000000000000000000000000000000000000
010000215000899000MACA FUJI KG                                      000000000000000001000000000000000000000000000000000000000000000000000000000000
010000216002990000BOLO LEITE NINHO TRU                              000000000000000001000000000000000000000000000000000000000000000000000000000000
011000217000299010TORTINHA PRESTIGIO                                000000000000000011000000000000000000000000000000000000000000000000000000000000
011000218000299020PURURUCA MOURO PC                                 000000000000000011000000000000000000000000000000000000000000000000000000000000
010000219006450030SALAME HAMBURGUES FA                              000000000000000011000000000000000000000000000000000000000000000000000000000000
010000220001599010FRALDAO TEMP. KG                                  000000000000000011000000000000000000000000000000000000000000000000000000000000
010000221001899010PAO BRIOCHE DA VOVO                               000000000000000011000000000000000000000000000000000000000000000000000000000000
010000222001299000MACA VERDE                                        000000000000000001000000000000000000000000000000000000000000000000000000000000
010000223001899010PAO BRIOCHE C/ERVAS                               000000000000000011000000000000000000000000000000000000000000000000000000000000
010000224001899010PAO BRIOCHE C/CENOUR                              000000000000000011000000000000000000000000000000000000000000000000000000000000
011000225000649007PAO LIGHT PRETO 380G                              000000000000000011000000000000000000000000000000000000000000000000000000000000
011000226000499007PAO LIGHT C/LINHACA                               000000000000000011000000000000000000000000000000000000000000000000000000000000
010000227000899007CACAROLA ITALIANA KG                              000000000000000011000000000000000000000000000000000000000000000000000000000000
010000228001765005PAO BAGUETE KG                                    000000000000000011000000000000000000000000000000000000000000000000000000000000
011000229000499005BAGUETE LOMBO/RICOTA                              000000000000000011000000000000000000000000000000000000000000000000000000000000
011000230000499005BAGUETE PRESUNTO/QUE                              000000000000000011000000000000000000000000000000000000000000000000000000000000
011000231000499005POMODORO PEITO PERU                               000000000000000011000000000000000000000000000000000000000000000000000000000000
011000232000499005BRIOCHE PATE PRESUNT                              000000000000000011000000000000000000000000000000000000000000000000000000000000
010000233001999007PAO CHUVISCO CHOC                                 000000000000000011000000000000000000000000000000000000000000000000000000000000
010000234001799007PAO LIGHT C/LINHACA                               000000000000000011000000000000000000000000000000000000000000000000000000000000
010000235001579007PAO LIGHT PRETO KG                                000000000000000011000000000000000000000000000000000000000000000000000000000000
010000236002990030TORRADA TOMATE SECO                               000000000000000011000000000000000000000000000000000000000000000000000000000000
010000237001479015COXINHA TEMP. EMB.KG                              000000000000000011000000000000000000000000000000000000000000000000000000000000
010000238001475009FILE PEITO TEMP EB                                000000000000000011000000000000000000000000000000000000000000000000000000000000
010000239000399000MAMAO FORMOSA                                     000000000000000001000000000000000000000000000000000000000000000000000000000000
010000240003449025MUSSARELA EMB KG                                  000000000000000011000000000000000000000000000000000000000000000000000000000000
010000241002599025APRESUNTADO EMB KG                                000000000000000011000000000000000000000000000000000000000000000000000000000000
010000243002099025MORT.TIPO BOLONHA EM                              000000000000000011000000000000000000000000000000000000000000000000000000000000
010000244002550025MORT.DEFUMADA EMB.                                000000000000000011000000000000000000000000000000000000000000000000000000000000
010000245003549025PRESUNTO EMB.KG                                   000000000000000011000000000000000000000000000000000000000000000000000000000000
010000246000399000MAMAO HAVAI/PAPAYA                                000000000000000001000000000000000000000000000000000000000000000000000000000000
010000248002699000COSTELINHA CARNEIRO                               000000000000000001000000000000000000000000000000000000000000000000000000000000
010000249004149025PEITO DE PERU EMB KG                              000000000000000011000000000000000000000000000000000000000000000000000000000000
010000251001749060LING.PAIO PIF PAF KG                              000000000000000011000000000000000000000000000000000000000000000000000000000000
010000252001899010PAOZINHO BRIOCHE                                  000000000000000011000000000000000000000000000000000000000000000000000000000000
011000253000650000MANDIOCA C/CASCA                                  000000000000000001000000000000000000000000000000000000000000000000000000000000
011000255009900007PATE DE  FRANGO 135G                              000000000000000011000000000000000000000000000000000000000000000000000000000000
011000256000299010PRESTIGIO GELADO UN                               000000000000000011000000000000000000000000000000000000000000000000000000000000
010000258004800000MUSSARELA LIGTH KG                                000000000000000001000000000000000000000000000000000000000000000000000000000000
010000260000999000MARACUJA AZEDO                                    000000000000000001000000000000000000000000000000000000000000000000000000000000
011000261000320030PALITO FRANC. C/ALHO                              000000000000000011000000000000000000000000000000000000000000000000000000000000
010000262003499025QUEIJO PRATO FAT. KG                              000000000000000011000000000000000000000000000000000000000000000000000000000000
010000263001299015PALETA TEMP. EB KG                                000000000000000011000000000000000000000000000000000000000000000000000000000000
011000265000599010TORTA HOLANDESA                                   000000000000000011000000000000000000000000000000000000000000000000000000000000
011000266005000007PATE PRESUNTO 340G                                000000000000000011000000000000000000000000000000000000000000000000000000000000
011000267009900007PATE DE FRANGO 340GR                              000000000000000011000000000000000000000000000000000000000000000000000000000000
010000269001799015PICANHA SUINA KG                                  000000000000000011000000000000000000000000000000000000000000000000000000000000
011000270000499007PAO LIGHT/PEITO PERU                              000000000000000011000000000000000000000000000000000000000000000000000000000000
010000273001499010MIX DE FRIOS KG                                   000000000000000011000000000000000000000000000000000000000000000000000000000000
010000274002999030QUEIJO SABOR CHEDDAR                              000000000000000011000000000000000000000000000000000000000000000000000000000000
010000276002990007BOLO GEL.NAKED CAKE                               000000000000000011000000000000000000000000000000000000000000000000000000000000
010000277000250000MELANCIA KG                                       000000000000000001000000000000000000000000000000000000000000000000000000000000
010000278004590000CUPIM DEF. FAT. OLHO                              000000000000000001000000000000000000000000000000000000000000000000000000000000
011000279001999003OFERTA PADARIA G60                                000000000000000011000000000000000000000000000000000000000000000000000000000000
011000280025000010LEGUMES EM CONSERVA                               000000000000000011000000000000000000000000000000000000000000000000000000000000
010000282003679000BACON EM PEDACO SADI                              000000000000000001000000000000000000000000000000000000000000000000000000000000
011000283001899000MARMITEX 2 PESSOAS                                000000000000000001000000000000000000000000000000000000000000000000000000000000
010000284000699000MELAO REI                                         000000000000000001000000000000000000000000000000000000000000000000000000000000
010000286004990000CONTRA FILE MATURADO                              000000000000000001000000000000000000000000000000000000000000000000000000000000
010000287001499003FRUTAS PICADAS KG                                 000000000000000011000000000000000000000000000000000000000000000000000000000000
010000288000699003MELANCIA PICADA                                   000000000000000011000000000000000000000000000000000000000000000000000000000000
010000289003000000CUIABANA CARNEIRO KG                              000000000000000001000000000000000000000000000000000000000000000000000000000000
010000290002189000CUIABANA SUINA KG                                 000000000000000001000000000000000000000000000000000000000000000000000000000000
010000292003575000MUSSARELA C/ AZEITON                              000000000000000001000000000000000000000000000000000000000000000000000000000000
010000293003575000MUSSARELA C/ TOM.SEC                              000000000000000001000000000000000000000000000000000000000000000000000000000000
011000294000175000MINI CACHORRO QUENTE                              000000000000000001000000000000000000000000000000000000000000000000000000000000
010000295004999000MUSSARELA DE BUFALA                               000000000000000001000000000000000000000000000000000000000000000000000000000000
010000296005399000QUEIJO BUFALA KG                                  000000000000000001000000000000000000000000000000000000000000000000000000000000
010000297010000025QUEIJO GRANA KG                                   000000000000000011000000000000000000000000000000000000000000000000000000000000
010000298004499030MORT.CERATTI LIGHT                                000000000000000011000000000000000000000000000000000000000000000000000000000000
010000299006699000QUEIJO REINO KG                                   000000000000000001000000000000000000000000000000000000000000000000000000000000
010000300000899000BATATA BAROA KG                                   000000000000000001000000000000000000000000000000000000000000000000000000000000
011000301000199005LEGUMES HIGIENIZADOS                              000000000000000011000000000000000000000000000000000000000000000000000000000000
011000302000199010MANJAR VINHO/CEREJA                               000000000000000011000000000000000000000000000000000000000000000000000000000000
010000303000999010MANJAR VINHO/CEREJA                               000000000000000011000000000000000000000000000000000000000000000000000000000000
010000304001680010BOLO CENOURA/CHOCOL                               000000000000000011000000000000000000000000000000000000000000000000000000000000
010000305003575000QUEIJO MUSS.CONDIMEN                              000000000000000001000000000000000000000000000000000000000000000000000000000000
010000306001999000PERU ASSA FACIL KG                                000000000000000001000000000000000000000000000000000000000000000000000000000000
010000309002990007BOLO GEL. NINHO/COCO                              000000000000000011000000000000000000000000000000000000000000000000000000000000
011000310015017007CURAU MILHO TEMP.                                 000000000000000011000000000000000000000000000000000000000000000000000000000000
011000311000499030BOLACHA NATA/GOIABAD                              000000000000000011000000000000000000000000000000000000000000000000000000000000
010000312001099060BATATA PALITO EMB.KG                              000000000000000011000000000000000000000000000000000000000000000000000000000000
010000314001499000NECTARINA FRUTA                                   000000000000000001000000000000000000000000000000000000000000000000000000000000
011000315001299045CHOCOTONE NA CAIXA                                000000000000000011000000000000000000000000000000000000000000000000000000000000
010000317001299000FRANGO ASSA FAC.KG                                000000000000000001000000000000000000000000000000000000000000000000000000000000
010000318005700000PICANHA MATURADA KG                               000000000000000001000000000000000000000000000000000000000000000000000000000000
010000320006759045SALAME ITALIANO KG                                000000000000000011000000000000000000000000000000000000000000000000000000000000
010000321001499000PESSEGO FRUTA                                     000000000000000001000000000000000000000000000000000000000000000000000000000000
011000322000250005HIGIENIZADA E PICADA                              000000000000000011000000000000000000000000000000000000000000000000000000000000
010000323000799000TOMATE HOLANDES KG                                000000000000000001000000000000000000000000000000000000000000000000000000000000
010000324002200010DELICIA NECTARINA KG                              000000000000000011000000000000000000000000000000000000000000000000000000000000
010000325002500010PRESTIGIO GELADO KG                               000000000000000011000000000000000000000000000000000000000000000000000000000000
010000326002899010PAVE SONHO VALSA KG                               000000000000000011000000000000000000000000000000000000000000000000000000000000
011000327009236007PATE DE ATUM 340GR                                000000000000000011000000000000000000000000000000000000000000000000000000000000
010000328002800007PATE DE ATUM POR KG                               000000000000000011000000000000000000000000000000000000000000000000000000000000
011000329000249007GELATINA FESTIVA UN                               000000000000000011000000000000000000000000000000000000000000000000000000000000
010000330001000007GELATINA FESTIVA KG                               000000000000000011000000000000000000000000000000000000000000000000000000000000
010000331003990000TENDER CERATTI KG                                 000000000000000001000000000000000000000000000000000000000000000000000000000000
010000332005500000TENDER SADIA DESOSSA                              000000000000000001000000000000000000000000000000000000000000000000000000000000
010000333002200010MOUSSE MARACUJA KG                                000000000000000011000000000000000000000000000000000000000000000000000000000000
010000334002499015NOSSA FAROFA KG                                   000000000000000011000000000000000000000000000000000000000000000000000000000000
010000335000499020LIMAO CRAVO KG                                    000000000000000011000000000000000000000000000000000000000000000000000000000000
011000336000250010SALSINHA PICADA HIG.                              000000000000000011000000000000000000000000000000000000000000000000000000000000
011000337000499030BOMBOM MOUSSE LIMAO                               000000000000000011000000000000000000000000000000000000000000000000000000000000
010000338001299000PERA  ARG                                         000000000000000001000000000000000000000000000000000000000000000000000000000000
011000339000350003PRODUTO OFERTA UN                                 000000000000000011000000000000000000000000000000000000000000000000000000000000
010000340001450007BOLO DE MARACUJA KG                               000000000000000011000000000000000000000000000000000000000000000000000000000000
010000341005000000MORT.DEF.SEARA EB KG                              000000000000000001000000000000000000000000000000000000000000000000000000000000
011000342000799000CANJICADA 550GR UN                                000000000000000001000000000000000000000000000000000000000000000000000000000000
010000343001700120BALA GOMUTCHO KG                                  000000000000000011000000000000000000000000000000000000000000000000000000000000
011000344000100000MASSA MINI PIZZA UN                               000000000000000001000000000000000000000000000000000000000000000000000000000000
010000345000299000REPOLHO                                           000000000000000001000000000000000000000000000000000000000000000000000000000000
011000347000599007TORTA MARACUJA UN N6                              000000000000000011000000000000000000000000000000000000000000000000000000000000
011000348000499090MINI PIZZA ATUM                                   000000000000000011000000000000000000000000000000000000000000000000000000000000
011000349009900007PATE DE ATUM 135GR                                000000000000000011000000000000000000000000000000000000000000000000000000000000
011000350000999003ESCOND.BACALHAU GDE                               000000000000000011000000000000000000000000000000000000000000000000000000000000
011000351000499003ESCOND.BACALHAU PEQ                               000000000000000011000000000000000000000000000000000000000000000000000000000000
010000352000399000TOMATE EXTRA KG                                   000000000000000001000000000000000000000000000000000000000000000000000000000000
010000353001699010PAO POMODORO KG                                   000000000000000011000000000000000000000000000000000000000000000000000000000000
010000354001499010PAO ITALIANO KG                                   000000000000000011000000000000000000000000000000000000000000000000000000000000
010000355001899007PAO CIABATA KG                                    000000000000000011000000000000000000000000000000000000000000000000000000000000
010000356002499180AMENDOIN PETIZ PIMEN                              000000000000000011000000000000000000000000000000000000000000000000000000000000
010000357002499180AMENDOIN PETIZ NATUR                              000000000000000011000000000000000000000000000000000000000000000000000000000000
010000358002499180AMENDOIN PETIZ TORRA                              000000000000000011000000000000000000000000000000000000000000000000000000000000
010000359002499180AMENDOIN PETIZ CROCA                              000000000000000011000000000000000000000000000000000000000000000000000000000000
010000360003999045PASTILHAS CHOCOLA KG                              000000000000000011000000000000000000000000000000000000000000000000000000000000
011000361000499060BOMBOM MARACUJA C/6                               000000000000000011000000000000000000000000000000000000000000000000000000000000
010000363002499045QUEIJO APERITIVOS KG                              000000000000000011000000000000000000000000000000000000000000000000000000000000
010000364002199000TORTA DE ATUM KG                                  000000000000000001000000000000000000000000000000000000000000000000000000000000
011000365000699000BRIGADEIRO DECO BDJ                               000000000000000001000000000000000000000000000000000000000000000000000000000000
011000366000499060BOMBOM RECH.COCO C/6                              000000000000000011000000000000000000000000000000000000000000000000000000000000
010000367001299007PAO DE MILHO KG                                   000000000000000011000000000000000000000000000000000000000000000000000000000000
010000369000249000PACOTE TOMATE KG                                  000000000000000001000000000000000000000000000000000000000000000000000000000000
010000370001299000PERA ASIATICA KG                                  000000000000000001000000000000000000000000000000000000000000000000000000000000
010000372001699000PAO FRANCES INTEGRAL                              000000000000000001000000000000000000000000000000000000000000000000000000000000
010000373002300030TORRADA PAO INTEGRAL                              000000000000000011000000000000000000000000000000000000000000000000000000000000
010000374008500120QUEIJO PROVOLONE DEF                              000000000000000011000000000000000000000000000000000000000000000000000000000000
010000375001999000PEIXE TILAPIA EVICER                              000000000000000001000000000000000000000000000000000000000000000000000000000000
010000377003990010BOLO GEL.KIT KAT                                  000000000000000011000000000000000000000000000000000000000000000000000000000000
011000378020000007PAO INT.RICOTA/PEITO                              000000000000000011000000000000000000000000000000000000000000000000000000000000
011000379000499005PAO ITALIANO E LOMBO                              000000000000000011000000000000000000000000000000000000000000000000000000000000
011000380000275008PETIT GATEAU UN                                   000000000000000011000000000000000000000000000000000000000000000000000000000000
011000381000199007TORTINHA DE LIMAO                                 000000000000000011000000000000000000000000000000000000000000000000000000000000
011000382000250010TORTINHA HOLANDESA                                000000000000000011000000000000000000000000000000000000000000000000000000000000
011000383006500000UVA BENI/RUBI CX GRA                              000000000000000001000000000000000000000000000000000000000000000000000000000000
010000384003200010TORTA MARIA ROSA KG                               000000000000000011000000000000000000000000000000000000000000000000000000000000
010000386003200010MARIA PRETA ROSA KG                               000000000000000011000000000000000000000000000000000000000000000000000000000000
011000387099109090PETIT GATEAU CONG. 4                              000000000000000011000000000000000000000000000000000000000000000000000000000000
010000388003490120CASTANHA DE CAJU KG                               000000000000000011000000000000000000000000000000000000000000000000000000000000
011000389001750090BOLINHO BACALHAU 50U                              000000000000000011000000000000000000000000000000000000000000000000000000000000
011000390001299000UVA RED GLOBE                                     000000000000000001000000000000000000000000000000000000000000000000000000000000
011000391000299015MOLHO TARTARO UN                                  000000000000000011000000000000000000000000000000000000000000000000000000000000
010000392002700030COOKIE CHOC/AVEIA KG                              000000000000000011000000000000000000000000000000000000000000000000000000000000
010000393003999010BOMBOM DE MORANGO KG                              000000000000000011000000000000000000000000000000000000000000000000000000000000
011000394015000030DOC.NINHO C/ CHOC BD                              000000000000000011000000000000000000000000000000000000000000000000000000000000
011000395000849003PORCAO NUGGETS 280GR                              000000000000000011000000000000000000000000000000000000000000000000000000000000
011000396001750090BOLINHO CAR/SEC 50UN                              000000000000000011000000000000000000000000000000000000000000000000000000000000
011000397001650090CROQUETE CONG. 50UN                               000000000000000011000000000000000000000000000000000000000000000000000000000000
010000399000299000MAMAO ORGANICA KG                                 000000000000000001000000000000000000000000000000000000000000000000000000000000
010000400002649007CENOURA/CHOC.NESTLE                               000000000000000011000000000000000000000000000000000000000000000000000000000000
010000401002799030BLANQUET PERU SADIA                               000000000000000011000000000000000000000000000000000000000000000000000000000000
010000402001800000TORTA FGO/CATUP KG                                000000000000000001000000000000000000000000000000000000000000000000000000000000
011000403000149005MINI BOLO FUBA/MILHO                              000000000000000011000000000000000000000000000000000000000000000000000000000000
011000405000250007FOLHA INTEIRA HIGIEN                              000000000000000011000000000000000000000000000000000000000000000000000000000000
010000406001499000UVA ROSADA A GRANEL                               000000000000000001000000000000000000000000000000000000000000000000000000000000
011000407000350030PAO DE MEL UN                                     000000000000000011000000000000000000000000000000000000000000000000000000000000
011000408000399030BOLACHA NATA/CHOCOLA                              000000000000000011000000000000000000000000000000000000000000000000000000000000
011000409001499010PUDIM LEITE COCO GDE                              000000000000000011000000000000000000000000000000000000000000000000000000000000
011000410000749010PUDIM LEITE COCO MED                              000000000000000011000000000000000000000000000000000000000000000000000000000000
011000411000350010PUDIM LEITE COCO MIN                              000000000000000011000000000000000000000000000000000000000000000000000000000000
011000412000499060CASTANHA PARA 50GR                                000000000000000011000000000000000000000000000000000000000000000000000000000000
010000413001299000UVA RUBI/BENT/BENE                                000000000000000001000000000000000000000000000000000000000000000000000000000000
011000415001750000MINI KIBE CARNE 50UN                              000000000000000001000000000000000000000000000000000000000000000000000000000000
010000417001900000COXAO DURO/LAGARTO K                              000000000000000001000000000000000000000000000000000000000000000000000000000000
011000418000350030BOLACHA NATA C/LIMAO                              000000000000000011000000000000000000000000000000000000000000000000000000000000
010000419002990000PATE TOM. SECO PERU                               000000000000000001000000000000000000000000000000000000000000000000000000000000
010000420000799000VAGEM                                             000000000000000001000000000000000000000000000000000000000000000000000000000000
011000422000499007AUSTRALIANO C/LOMBO                               000000000000000011000000000000000000000000000000000000000000000000000000000000
011000423000199020DOCE ABOBORA C/ COCO                              000000000000000011000000000000000000000000000000000000000000000000000000000000
010000424003499007BOLO DE CHURROS KG                                000000000000000011000000000000000000000000000000000000000000000000000000000000
010000425001990007PAO AUSTRALIANOKG                                 000000000000000011000000000000000000000000000000000000000000000000000000000000
010000427001299000LING.SUINA RESENDE K                              000000000000000001000000000000000000000000000000000000000000000000000000000000
011000428000299005PAMONHINHA DO MOURO                               000000000000000011000000000000000000000000000000000000000000000000000000000000
011000429000299010BOLO GELADO D.COLHER                              000000000000000011000000000000000000000000000000000000000000000000000000000000
011000430150112030GELEIA FRUTAS NAT.                                000000000000000011000000000000000000000000000000000000000000000000000000000000
011000431000199030GELEIA DE BANANA                                  000000000000000011000000000000000000000000000000000000000000000000000000000000
011000432002799000LING.CUIABANA C/QUEI                              000000000000000001000000000000000000000000000000000000000000000000000000000000
011000433000250006ARROZ DOCE UN SALGAD                              000000000000000011000000000000000000000000000000000000000000000000000000000000
011000434000300006CANJICADA UN SALGADE                              000000000000000011000000000000000000000000000000000000000000000000000000000000
011000435000350006TIRAMISSU SALGADEIRA                              000000000000000011000000000000000000000000000000000000000000000000000000000000
011000436000200007GELATINA SALGADER                                 000000000000000011000000000000000000000000000000000000000000000000000000000000
010000437000825000FAR.MAND.PETRO.CAS.                               000000000000000001000000000000000000000000000000000000000000000000000000000000
011000438000250006GEL.FESTIVA SALGADER                              000000000000000011000000000000000000000000000000000000000000000000000000000000
011000439000250006MOUSSE CHOC.SALGADER                              000000000000000011000000000000000000000000000000000000000000000000000000000000
011000440000400006MOUSSE PREST.SALGADE                              000000000000000011000000000000000000000000000000000000000000000000000000000000
011000441000400006MOUSSE MARAC.SALGADE                              000000000000000011000000000000000000000000000000000000000000000000000000000000
011000442000249006MOUSSE LEITE NINHO U                              000000000000000011000000000000000000000000000000000000000000000000000000000000
011000443000200006SALADA FRUTA SALGADE                              000000000000000011000000000000000000000000000000000000000000000000000000000000
011000445000400012PUDIM.LEITE CONDENSA                              000000000000000011000000000000000000000000000000000000000000000000000000000000
011000446000350012PUDIM L.NINHO SALGAD                              000000000000000011000000000000000000000000000000000000000000000000000000000000
011000447000500012PUDIM COCO SALGADERI                              000000000000000011000000000000000000000000000000000000000000000000000000000000
011000448000500006BRIGADEIRO COLHER                                 000000000000000011000000000000000000000000000000000000000000000000000000000000
011000449000300006MANJAR DE COCO                                    000000000000000011000000000000000000000000000000000000000000000000000000000000
011000450000300006GALAK C/SUCRILHOS                                 000000000000000011000000000000000000000000000000000000000000000000000000000000
011000451000300006GELEIA NATURAL SALGA                              000000000000000011000000000000000000000000000000000000000000000000000000000000
011000452000400006DELICIA ABACAXI UN                                000000000000000011000000000000000000000000000000000000000000000000000000000000
011000453000650025DOCINHOS SALGADERIA                               000000000000000011000000000000000000000000000000000000000000000000000000000000
010000454001449000LING.SEARA RETA KG                                000000000000000001000000000000000000000000000000000000000000000000000000000000
010000455004499000TENDER SEARA SUINO                                000000000000000001000000000000000000000000000000000000000000000000000000000000
010000456004599000TENDER SEARA FIESTA                               000000000000000001000000000000000000000000000000000000000000000000000000000000
010000457001999000AVE SUPREME SADIA KG                              000000000000000001000000000000000000000000000000000000000000000000000000000000
011000458000025000OFERTA P.QUEIJO/PALI                              000000000000000001000000000000000000000000000000000000000000000000000000000000
010000459003750015FLAMENGO TEMP. DEBRA                              000000000000000011000000000000000000000000000000000000000000000000000000000000
011000460000899010PUDIM S/LACTOZE MEDI                              000000000000000011000000000000000000000000000000000000000000000000000000000000
011000461001599000PUDIM S/LACTOZE GRD                               000000000000000001000000000000000000000000000000000000000000000000000000000000
011000462000349000PUDIM S/LACTOZE PEQ                               000000000000000001000000000000000000000000000000000000000000000000000000000000
010000464003500000PERU DESOSSADO PERD.                              000000000000000001000000000000000000000000000000000000000000000000000000000000
010000465002999000CHESTER DESOS.PERD.                               000000000000000001000000000000000000000000000000000000000000000000000000000000
010000466002700000PERNIL ASSA FACIL SD                              000000000000000001000000000000000000000000000000000000000000000000000000000000
010000467002099000LOMBO FACIL SADIA KG                              000000000000000001000000000000000000000000000000000000000000000000000000000000
010000468000599000TRIGO P/KIBE KG                                   000000000000000001000000000000000000000000000000000000000000000000000000000000
010000469002300000PERU SADIA KG                                     000000000000000001000000000000000000000000000000000000000000000000000000000000
010000470002300000LOMBO TEMP. SADIA KG                              000000000000000001000000000000000000000000000000000000000000000000000000000000
010000471002400000CESTA PERU/LOMBO KG                               000000000000000001000000000000000000000000000000000000000000000000000000000000
011000472002500000FIESTA DES.SEARA A.F                              000000000000000001000000000000000000000000000000000000000000000000000000000000
010000473003999000CAST.PARA C/CASC.KG                               000000000000000001000000000000000000000000000000000000000000000000000000000000
010000474002149000COSTELA SUINA SADIA                               000000000000000001000000000000000000000000000000000000000000000000000000000000
010000475000550030MANDIOCA DESC.KG                                  000000000000000011000000000000000000000000000000000000000000000000000000000000
010000476002400010MOUSSE CHOCOLATE KG                               000000000000000011000000000000000000000000000000000000000000000000000000000000
010000477002999030PALITO ALHO/QUEIJO                                000000000000000011000000000000000000000000000000000000000000000000000000000000
010000479002499070AMEND.PETIZ CE/SA KG                              000000000000000011000000000000000000000000000000000000000000000000000000000000
010000480002990030TORRADA BRANCA KG                                 000000000000000011000000000000000000000000000000000000000000000000000000000000
011000481000899002PRODUTO OFERTA                                    000000000000000011000000000000000000000000000000000000000000000000000000000000
010000485002300000SALPICAO/MARROQUINA                               000000000000000001000000000000000000000000000000000000000000000000000000000000
010000486001500030TORRADA DOCE TIRAS K                              000000000000000011000000000000000000000000000000000000000000000000000000000000
010000487002500030TORR.PAO AUSTRALIANO                              000000000000000011000000000000000000000000000000000000000000000000000000000000
010000488002000020PAO ALHO RECH.QUEIJO                              000000000000000011000000000000000000000000000000000000000000000000000000000000
010000489004000010BOLO DIVERSAO CHANT                               000000000000000011000000000000000000000000000000000000000000000000000000000000
010000490001499030TORR.PAO FRANCES TEM                              000000000000000011000000000000000000000000000000000000000000000000000000000000
010000491002499010ROCAMBOLE CHOCOLATE                               000000000000000011000000000000000000000000000000000000000000000000000000000000
011000492000700005WRAP MOURO ATUM                                   000000000000000011000000000000000000000000000000000000000000000000000000000000
011000493000599000TORTA DE LEITE NINHO                              000000000000000001000000000000000000000000000000000000000000000000000000000000
011000495000299005MOUSSE DE MAR/BIS                                 000000000000000011000000000000000000000000000000000000000000000000000000000000
011000496000299000MOUSSE LIMAO C/ BIS                               000000000000000001000000000000000000000000000000000000000000000000000000000000
010000497100000000CEBOLA BRANCA KG                                  000000000000000001000000000000000000000000000000000000000000000000000000000000
010000498002149000PICANHA SUINA TEMP.                               000000000000000001000000000000000000000000000000000000000000000000000000000000
010000500004149000QUEIJO TRIAN.PREMIUM                              000000000000000001000000000000000000000000000000000000000000000000000000000000
010000501002999017PEITO DE FRANGO EMB.                              000000000000000011000000000000000000000000000000000000000000000000000000000000
010000502001759028LING. SEARA FINI.DEF                              000000000000000011000000000000000000000000000000000000000000000000000000000000
010000504003490007BOLO CHOC. RECHEADO                               000000000000000011000000000000000000000000000000000000000000000000000000000000
010000506001499008BOLO C/ CASTANHA KG                               000000000000000011000000000000000000000000000000000000000000000000000000000000
010000507008249020MUSSARELA LIGHT KG                                000000000000000011000000000000000000000000000000000000000000000000000000000000
010000509007999000MUSSARELA S/ LACTOSE                              000000000000000001000000000000000000000000000000000000000000000000000000000000
010000511008999000QUEIJO M.PADRAO LG K                              000000000000000001000000000000000000000000000000000000000000000000000000000000
010000512011000000QUEIJO CAMEMB.TIR.KG                              000000000000000001000000000000000000000000000000000000000000000000000000000000
010000513002499000AMENDOIN JAPONES KG                               000000000000000001000000000000000000000000000000000000000000000000000000000000
011000514000299005BREVIDADE 2UN                                     000000000000000011000000000000000000000000000000000000000000000000000000000000
010000515001799000CARAMBOLA                                         000000000000000001000000000000000000000000000000000000000000000000000000000000
010000516001499000LIMAO SICILIANO KG                                000000000000000001000000000000000000000000000000000000000000000000000000000000
010000517002800020OVO CODORNA CONS.KG                               000000000000000011000000000000000000000000000000000000000000000000000000000000
010000518009900000QUEIJO COALHO TIROLE                              000000000000000001000000000000000000000000000000000000000000000000000000000000
011000521000575090MINI KIBE C/ QUEIJO                               000000000000000011000000000000000000000000000000000000000000000000000000000000
011000522001750090KIBE C/ QUEIJO 50 UN                              000000000000000011000000000000000000000000000000000000000000000000000000000000
010000523009999120NOZES IMPORTADA KG                                000000000000000011000000000000000000000000000000000000000000000000000000000000
010000524002449000PERU TEMP A.F.SEARA                               000000000000000001000000000000000000000000000000000000000000000000000000000000
010000526005399000PERU DES.REC.SADIA K                              000000000000000001000000000000000000000000000000000000000000000000000000000000
010000527003999010MIN.CHURROS.D.LEITE                               000000000000000011000000000000000000000000000000000000000000000000000000000000
011000528002500000QUEIJO DANBO KG                                   000000000000000001000000000000000000000000000000000000000000000000000000000000
010000530002500005LEG.MARI/SKABECH KG                               000000000000000011000000000000000000000000000000000000000000000000000000000000
010000532006999000PICANHA ANGUS KG                                  000000000000000001000000000000000000000000000000000000000000000000000000000000
010000533001299000PITAYA FRUTA KG                                   000000000000000001000000000000000000000000000000000000000000000000000000000000
010000534003700030ESCABECHE KG                                      000000000000000011000000000000000000000000000000000000000000000000000000000000
011000537000100008CREME DE RICOTA UN                                000000000000000011000000000000000000000000000000000000000000000000000000000000
010000539006400030TOMATE SECO KG                                    000000000000000011000000000000000000000000000000000000000000000000000000000000
010000540004500020COALHADA DE BOLINHA                               000000000000000011000000000000000000000000000000000000000000000000000000000000
010000541004500030RICOTA TEMPERADO KG                               000000000000000011000000000000000000000000000000000000000000000000000000000000
010000542004500030COALHADA TEMPERADA K                              000000000000000011000000000000000000000000000000000000000000000000000000000000
011002073000499005BOLO MILHO CREMOSO                                000000000000000011000000000000000000000000000000000000000000000000000000000000
011002578000199020JURUBEBA IN NATURA                                000000000000000011000000000000000000000000000000000000000000000000000000000000
011002738001700000PIMENTA VERDE KG                                  000000000000000001000000000000000000000000000000000000000000000000000000000000
011003926001000000PAPEL  ARROZ C/ FOTO                              000000000000000001000000000000000000000000000000000000000000000000000000000000
011004015000100002TORTA  FRANGO                                     000000000000000011000000000000000000000000000000000000000000000000000000000000
011004039000110002PAO PRES/MUS/                                     000000000000000011000000000000000000000000000000000000000000000000000000000000
010005623001299010ROSCA RECH.C/CREME                                000000000000000011000000000000000000000000000000000000000000000000000000000000
010005647002000001VERDURAS FOLHAS PTAS                              000000000000000011000000000000000000000000000000000000000000000000000000000000
010005715002000002MASSAS/SALGADO/OVOS                               000000000000000011000000000000000000000000000000000000000000000000000000000000
010005722001099002LEGUMES COZ/CRU/FRIT                              000000000000000011000000000000000000000000000000000000000000000000000000000000
010005777003500003CARNE BOV/FG/SUI/PEI                              000000000000000011000000000000000000000000000000000000000000000000000000000000
010006033001499003MASSA PAO LO CHOC KG                              000000000000000011000000000000000000000000000000000000000000000000000000000000
011006361000100002ESFIHA PRONTA                                     000000000000000011000000000000000000000000000000000000000000000000000000000000
010006828000925010PEITO E COXA TEMPERA                              000000000000000011000000000000000000000000000000000000000000000000000000000000
010006835000749010FRANGO TEMP.MISTO KG                              000000000000000011000000000000000000000000000000000000000000000000000000000000
010006842001099007COSTELA BOVINA KG                                 000000000000000011000000000000000000000000000000000000000000000000000000000000
010006859001799010PATINHO/COXAO DUROKG                              000000000000000011000000000000000000000000000000000000000000000000000000000000
010006866002900010ALCATRA/CONTRA FILE                               000000000000000011000000000000000000000000000000000000000000000000000000000000
010006873003149007FILE MIGNON KG                                    000000000000000011000000000000000000000000000000000000000000000000000000000000
010006880001749010PONTA PEITO/AGULHA/F                              000000000000000011000000000000000000000000000000000000000000000000000000000000
011006903000400007LINGUA UN                                         000000000000000011000000000000000000000000000000000000000000000000000000000000
011006910000299007CORACAO BOVINO UN                                 000000000000000011000000000000000000000000000000000000000000000000000000000000
010006927000699005FIGADO BOVINO KG                                  000000000000000011000000000000000000000000000000000000000000000000000000000000
010006934000499010TOUCINHO SUINO KG                                 000000000000000011000000000000000000000000000000000000000000000000000000000000
010006941001999007PERNIL/PALETA SUINO                               000000000000000011000000000000000000000000000000000000000000000000000000000000
010006958002149007LOMBO SUINO CAIP. KG                              000000000000000011000000000000000000000000000000000000000000000000000000000000
010006965000599015KIT FEIJOADA KG                                   000000000000000011000000000000000000000000000000000000000000000000000000000000
010006972001599007ALMONDEGA KG                                      000000000000000011000000000000000000000000000000000000000000000000000000000000
010006989001990010CARNE CHEIA KG                                    000000000000000011000000000000000000000000000000000000000000000000000000000000
010006996001499020KAFTA BOVINA KG                                   000000000000000011000000000000000000000000000000000000000000000000000000000000
010007009001575010KIBE CRU MOURO KG                                 000000000000000011000000000000000000000000000000000000000000000000000000000000
010007030003149007PICANHA KG                                        000000000000000011000000000000000000000000000000000000000000000000000000000000
010007078001465030LING.SEARA TOSCANA K                              000000000000000011000000000000000000000000000000000000000000000000000000000000
010007092002000060LING.CALABRESA KG                                 000000000000000011000000000000000000000000000000000000000000000000000000000000
010007122002199010MORT.SADIA DEFUMADA                               000000000000000011000000000000000000000000000000000000000000000000000000000000
010007177002299060BACON KG                                          000000000000000011000000000000000000000000000000000000000000000000000000000000
010007207001159000COXINHA FGO CONG.KG                               000000000000000001000000000000000000000000000000000000000000000000000000000000
010007214000899007COXA S/COXA A GRANEL                              000000000000000011000000000000000000000000000000000000000000000000000000000000
010007238000899000PEITO FGO CONG.KILO                               000000000000000001000000000000000000000000000000000000000000000000000000000000
010007245001299007FILE PEITO FGO KG                                 000000000000000011000000000000000000000000000000000000000000000000000000000000
010007283002999090QUEIJO MEIA CURA KG                               000000000000000011000000000000000000000000000000000000000000000000000000000000
010007290002190010AZEIT.VERDE GRANEL K                              000000000000000011000000000000000000000000000000000000000000000000000000000000
010007337001999090FILE MIGNON SUINO KG                              000000000000000011000000000000000000000000000000000000000000000000000000000000
010007344001399090PEIXE PIAPARA KG                                  000000000000000011000000000000000000000000000000000000000000000000000000000000
011007412000859045OVOS ROXO 2 1/2DZ                                 000000000000000011000000000000000000000000000000000000000000000000000000000000
010008181001899003PAES ESPECIAIS RECHE                              000000000000000011000000000000000000000000000000000000000000000000000000000000
011008280000190005DOCES MOURO UN                                    000000000000000011000000000000000000000000000000000000000000000000000000000000
011009591001499000PANETONE NEST.CL.500                              000000000000000001000000000000000000000000000000000000000000000000000000000000
010009805000349000CEBOLA EXTRA                                      000000000000000001000000000000000000000000000000000000000000000000000000000000
010009812000349000BATATA EXTRA                                      000000000000000001000000000000000000000000000000000000000000000000000000000000
010009850001575060PEIXE FILE MERLUZA K                              000000000000000011000000000000000000000000000000000000000000000000000000000000
010009898002149007COSTELINHA SUINAN KG                              000000000000000011000000000000000000000000000000000000000000000000000000000000
010009959002149000COXAO MOLE FRIGORIFI                              000000000000000001000000000000000000000000000000000000000000000000000000000000
010010023003349007MUSSARELA GRANEL KG                               000000000000000011000000000000000000000000000000000000000000000000000000000000
010010153002249015TULIPA FRANG TEMP.EB                              000000000000000011000000000000000000000000000000000000000000000000000000000000
011010207002200045TRUFADO CHOC/CHOC                                 000000000000000011000000000000000000000000000000000000000000000000000000000000
010010498000499000ABACATE                                           000000000000000001000000000000000000000000000000000000000000000000000000000000
010010535000099000SACOLAO OFERTA                                    000000000000000001000000000000000000000000000000000000000000000000000000000000
010010542003490090CASTANHA CAJU KG                                  000000000000000011000000000000000000000000000000000000000000000000000000000000
010010719000299000LARANJA                                           000000000000000001000000000000000000000000000000000000000000000000000000000000
011010726007000000LARANJA PCTE                                      000000000000000001000000000000000000000000000000000000000000000000000000000000
010010771000829180FRANGO INTEIRO CONG.                              000000000000000011000000000000000000000000000000000000000000000000000000000000
010010818000806000FRANGO TEMP.BRISC.KG                              000000000000000001000000000000000000000000000000000000000000000000000000000000
010011006001899090LING.PURA MOURO KG                                000000000000000011000000000000000000000000000000000000000000000000000000000000
010011013000799007TORRESMINHO TEMPERAD                              000000000000000011000000000000000000000000000000000000000000000000000000000000
010011396002549007APRESUNTADO KG                                    000000000000000011000000000000000000000000000000000000000000000000000000000000
010011532001999015BIFE A ROLE KG                                    000000000000000011000000000000000000000000000000000000000000000000000000000000
011011709001500005GUARIROBA                                         000000000000000011000000000000000000000000000000000000000000000000000000000000
011011747000750000GARRAFA CAFE 1 LITRO                              000000000000000001000000000000000000000000000000000000000000000000000000000000
010012096002990007BOLO SENSACAO MORANG                              000000000000000011000000000000000000000000000000000000000000000000000000000000
010012270000399000BANANA FIGA                                       000000000000000001000000000000000000000000000000000000000000000000000000000000
010012331002999000ALCATRA FRIG.KG                                   000000000000000001000000000000000000000000000000000000000000000000000000000000
010012386001999000ROMA                                              000000000000000001000000000000000000000000000000000000000000000000000000000000
011012393000999060PAO DE QUEIJO MINEIR                              000000000000000011000000000000000000000000000000000000000000000000000000000000
010012409000399000TOMATE CAQUI                                      000000000000000001000000000000000000000000000000000000000000000000000000000000
010012560000399000MANGA T.ATKIN                                     000000000000000001000000000000000000000000000000000000000000000000000000000000
010012782000299000PINHA / ATEMOIA KG                                000000000000000001000000000000000000000000000000000000000000000000000000000000
010013130000499000LIMAO TAITI  KG                                   000000000000000001000000000000000000000000000000000000000000000000000000000000
010013642001890000PEIXE PORQUINHO KG                                000000000000000001000000000000000000000000000000000000000000000000000000000000
010013659002999120PEIXE PINTADO KG                                  000000000000000011000000000000000000000000000000000000000000000000000000000000
011014038003499120FRANGO SEMI CAIPIRA                               000000000000000011000000000000000000000000000000000000000000000000000000000000
011014267002500005SALGADINHO FESTA 50                               000000000000000011000000000000000000000000000000000000000000000000000000000000
010014342000599000BANANA MACA                                       000000000000000001000000000000000000000000000000000000000000000000000000000000
011014748000110000LANCHE PANDA                                      000000000000000001000000000000000000000000000000000000000000000000000000000000
010015059000399000MANGA PALMER                                      000000000000000001000000000000000000000000000000000000000000000000000000000000
010015349001499020BOLACH.NATA C/GOIABA                              000000000000000011000000000000000000000000000000000000000000000000000000000000
010015455001399020PERNIL C/OSSO TEMP.                               000000000000000011000000000000000000000000000000000000000000000000000000000000
011015721000225010CANJICADA UN                                      000000000000000011000000000000000000000000000000000000000000000000000000000000
011015738000150030BANANINHA CRISTAL                                 000000000000000011000000000000000000000000000000000000000000000000000000000000
010015752001699003PAO DE QUEIJO KG                                  000000000000000011000000000000000000000000000000000000000000000000000000000000
010015844002800000LEITOA INTEIRA KG                                 000000000000000001000000000000000000000000000000000000000000000000000000000000
010015851002500000LEITOA A PASSARINHO                               000000000000000001000000000000000000000000000000000000000000000000000000000000
011015882037305030DOCINHO LEITE NINHO                               000000000000000011000000000000000000000000000000000000000000000000000000000000
011015899015699030CAJUZINHO BDJA                                    000000000000000011000000000000000000000000000000000000000000000000000000000000
010015905001499090SUAN DE PORCO KG                                  000000000000000011000000000000000000000000000000000000000000000000000000000000
010015912003999000CASTANHA DO PARA KG                               000000000000000001000000000000000000000000000000000000000000000000000000000000
010016353003500000QUEIJO PRATO KG                                   000000000000000001000000000000000000000000000000000000000000000000000000000000
011016612000149007BOMBOCADO UN 70GR                                 000000000000000011000000000000000000000000000000000000000000000000000000000000
010016728000499000BANANA PRATA                                      000000000000000001000000000000000000000000000000000000000000000000000000000000
010016735000999000GOIABA KILO                                       000000000000000001000000000000000000000000000000000000000000000000000000000000
011016841000299030GELEIA MORANGO                                    000000000000000011000000000000000000000000000000000000000000000000000000000000
010017077000699000MEXERICA                                          000000000000000001000000000000000000000000000000000000000000000000000000000000
011017114000250030DOCE BANANA CAS.250G                              000000000000000011000000000000000000000000000000000000000000000000000000000000
011017145001299000FIGO FRUTA                                        000000000000000001000000000000000000000000000000000000000000000000000000000000
010017398000569000PEIXE CORIMBA KG                                  000000000000000001000000000000000000000000000000000000000000000000000000000000
011017411000249000COCO VERDE UN                                     000000000000000001000000000000000000000000000000000000000000000000000000000000
010017428002299000PEIXE BARBADO KG                                  000000000000000001000000000000000000000000000000000000000000000000000000000000
010017435002499000PEIXE BARBADO POSTAS                              000000000000000001000000000000000000000000000000000000000000000000000000000000
010017763001199000FILE SASSAMI KG                                   000000000000000001000000000000000000000000000000000000000000000000000000000000
010018227002025000SACOLA PEQ.30X40 C/1                              000000000000000001000000000000000000000000000000000000000000000000000000000000
010018791000199000PACOTE BATATA KG                                  000000000000000001000000000000000000000000000000000000000000000000000000000000
010019316002349030LING.SUINA GOLD MEAT                              000000000000000011000000000000000000000000000000000000000000000000000000000000
010019385002500090CARNE SECA                                        000000000000000011000000000000000000000000000000000000000000000000000000000000
010020169000899000PEPINO CAIPIRA                                    000000000000000001000000000000000000000000000000000000000000000000000000000000
010020237001099005FRUTAS DIVERSAS KG                                000000000000000011000000000000000000000000000000000000000000000000000000000000
010020473000499000REPOLHO ROXO KG                                   000000000000000001000000000000000000000000000000000000000000000000000000000000
010021272001499060LINGUICA PAIO KG                                  000000000000000011000000000000000000000000000000000000000000000000000000000000
010021302000999000LARANJA LIMA PERSA                                000000000000000001000000000000000000000000000000000000000000000000000000000000
010021562003249120PEIXE FILE TILAPIA                                000000000000000011000000000000000000000000000000000000000000000000000000000000
011021951000299015TORTINHA TIRAMISU                                 000000000000000011000000000000000000000000000000000000000000000000000000000000
011022002001699000PANETONE NEST.PREST.                              000000000000000001000000000000000000000000000000000000000000000000000000000000
011022231000299007VERRINE SOBREMESA                                 000000000000000011000000000000000000000000000000000000000000000000000000000000
011022248000299010DELICIA DE ABACAXI U                              000000000000000011000000000000000000000000000000000000000000000000000000000000
011022309000299002BAURU                                             000000000000000011000000000000000000000000000000000000000000000000000000000000
011022316000299002MISTO QUENTE                                      000000000000000011000000000000000000000000000000000000000000000000000000000000
011022323000450000VITAMINA/FRUTAS SIMP                              000000000000000001000000000000000000000000000000000000000000000000000000000000
011022330000499000VITAMINA/FRUTAS/PACO                              000000000000000001000000000000000000000000000000000000000000000000000000000000
011022378000499000VITAMINA CITRICA                                  000000000000000001000000000000000000000000000000000000000000000000000000000000
011022460000150000PAO C/MARG CHAPA                                  000000000000000001000000000000000000000000000000000000000000000000000000000000
011022767000399010BOMBA RECHEADA                                    000000000000000011000000000000000000000000000000000000000000000000000000000000
011022903000150005BROWNIE                                           000000000000000011000000000000000000000000000000000000000000000000000000000000
011022927000165005FLAN'S SABORES                                    000000000000000011000000000000000000000000000000000000000000000000000000000000
010022934001450005BOLO FUBA/QUEIJO KG                               000000000000000011000000000000000000000000000000000000000000000000000000000000
011022996000220000ROCAMBOLE FATIA UNUN                              000000000000000001000000000000000000000000000000000000000000000000000000000000
011023023001421000ING.COB.MAVAL.CHO.LE                              000000000000000001000000000000000000000000000000000000000000000000000000000000
010023313001300030BISC.POLV.DOCE MOURO                              000000000000000011000000000000000000000000000000000000000000000000000000000000
010023337001699000SELF SERVICE CAFE MA                              000000000000000001000000000000000000000000000000000000000000000000000000000000
011023368000941000AVENTAL TRANSPARENTE                              000000000000000001000000000000000000000000000000000000000000000000000000000000
011023375000299000ADOCA.ASSUGRIN 100ML                              000000000000000001000000000000000000000000000000000000000000000000000000000000
011023399000129000GEL.FRUT.DIET.LIMAO                               000000000000000001000000000000000000000000000000000000000000000000000000000000
011023405001099000SABAO PO MINUANO COC                              000000000000000001000000000000000000000000000000000000000000000000000000000000
010023481001499007ROSCA C/GOIABADA KG                               000000000000000011000000000000000000000000000000000000000000000000000000000000
010023504001399007ROSCA SIMPLES KG                                  000000000000000011000000000000000000000000000000000000000000000000000000000000
010023511001345005BROA DE FUBA                                      000000000000000011000000000000000000000000000000000000000000000000000000000000
010023535001899007PAO ESPECIAL KG                                   000000000000000011000000000000000000000000000000000000000000000000000000000000
010023559000600045FAR.PAO MOURO KG                                  000000000000000011000000000000000000000000000000000000000000000000000000000000
010023573001499015QUEBRADOR DE QU                                   000000000000000011000000000000000000000000000000000000000000000000000000000000
010023597001250060ENROLADINHO SALSIS                                000000000000000011000000000000000000000000000000000000000000000000000000000000
010023832001999000ING.OREGANO.KILO                                  000000000000000001000000000000000000000000000000000000000000000000000000000000
010023849002600000REFEICAO POR KILO                                 000000000000000001000000000000000000000000000000000000000000000000000000000000
010023863004500010COALHADA KG                                       000000000000000011000000000000000000000000000000000000000000000000000000000000
010023955001599007ROSQUINHA FRITA KG                                000000000000000011000000000000000000000000000000000000000000000000000000000000
010024013001589006FORROBODO DOCE KG                                 000000000000000011000000000000000000000000000000000000000000000000000000000000
011024037001499007TORTA MOR/CHANT UN                                000000000000000011000000000000000000000000000000000000000000000000000000000000
011024112000799000P.S.BOYS LINHACA 500                              000000000000000001000000000000000000000000000000000000000000000000000000000000
011024310000275090ALHO/SAL/PIMEN 250GR                              000000000000000011000000000000000000000000000000000000000000000000000000000000
010024426001650030TORRADA PAO FRANCES                               000000000000000011000000000000000000000000000000000000000000000000000000000000
010024624001699030BOLACHA CHAMPAG                                   000000000000000011000000000000000000000000000000000000000000000000000000000000
011024921000240010LATAOZINHO CHOCOLATE                              000000000000000011000000000000000000000000000000000000000000000000000000000000
010024969002990007BOLO LEITE N/STROGON                              000000000000000011000000000000000000000000000000000000000000000000000000000000
010025096002500010CAROLINA RECHEADA KG                              000000000000000011000000000000000000000000000000000000000000000000000000000000
010025119286014007ESTUFA EDANCA SELF.S                              000000000000000011000000000000000000000000000000000000000000000000000000000000
011025133000299000IO.V.MOR/CHOCOK 165G                              000000000000000001000000000000000000000000000000000000000000000000000000000000
010025416001799030BOLACHA LEITE COND.K                              000000000000000011000000000000000000000000000000000000000000000000000000000000
010025430002990007BOLO GELADO COCO/L.C                              000000000000000011000000000000000000000000000000000000000000000000000000000000
011025461000499010PO DE FORMA D.CASA                               000000000000000011000000000000000000000000000000000000000000000000000000000000
011025478000350010PAO DE FORMA D.CASA                               000000000000000011000000000000000000000000000000000000000000000000000000000000
011025645000349010PUDIM  LEITE COND.MI                              000000000000000011000000000000000000000000000000000000000000000000000000000000
010025676002399007TORTA MORANGO KG                                  000000000000000011000000000000000000000000000000000000000000000000000000000000
010025980001600000FERM.BIO.ITAQUA.KILO                              000000000000000001000000000000000000000000000000000000000000000000000000000000
011026277045647015SELADORA BQ.PED.C/TE                              000000000000000011000000000000000000000000000000000000000000000000000000000000
011026598000199010ARROZ DOCE UN                                     000000000000000011000000000000000000000000000000000000000000000000000000000000
010026642001999000PIMENTAO AMARE/VERM                               000000000000000001000000000000000000000000000000000000000000000000000000000000
010026710002999000CONTRA FILE FRIGO                                 000000000000000001000000000000000000000000000000000000000000000000000000000000
011026734000169015CREME CHOC/LEI.CONUN                              000000000000000011000000000000000000000000000000000000000000000000000000000000
011026819000399015TORTA MARIA PRETA UN                              000000000000000011000000000000000000000000000000000000000000000000000000000000
011026932000099005CANAPE MAION UN                                   000000000000000011000000000000000000000000000000000000000000000000000000000000
010026949002300060PETIT FOUR C/GOIA.KG                              000000000000000011000000000000000000000000000000000000000000000000000000000000
011026956000099005CANAPE RECH.FGO UN                                000000000000000011000000000000000000000000000000000000000000000000000000000000
010026970001450006BOLO CENOURA KG                                   000000000000000011000000000000000000000000000000000000000000000000000000000000
010027007001450007BOLO DE FUBA KG                                   000000000000000011000000000000000000000000000000000000000000000000000000000000
010027069001399060ESFIRRA DE FRANGO                                 000000000000000011000000000000000000000000000000000000000000000000000000000000
011027083000130015ROCAMBOLE RECH.CHOC                               000000000000000011000000000000000000000000000000000000000000000000000000000000
010027151015000030BISC LEITE MOCA KG                                000000000000000011000000000000000000000000000000000000000000000000000000000000
011027182000499060BOMBOM RECH.CROCANTE                              000000000000000011000000000000000000000000000000000000000000000000000000000000
011027199000499060RECH.LEITE CONDENSAD                              000000000000000011000000000000000000000000000000000000000000000000000000000000
011027205000499030DOCINHOS VARIADOS                                 000000000000000011000000000000000000000000000000000000000000000000000000000000
010027229000949020MOELA TEMPERADA KG                                000000000000000011000000000000000000000000000000000000000000000000000000000000
011027267000089007ROSCA SIMPLES UN                                  000000000000000011000000000000000000000000000000000000000000000000000000000000
011027274000070007PAO CASEIRO UN                                    000000000000000011000000000000000000000000000000000000000000000000000000000000
010027281001380007BISCOITAO POLVILHO K                              000000000000000011000000000000000000000000000000000000000000000000000000000000
011027359000150003TORTINHA PROMOCAO                                 000000000000000011000000000000000000000000000000000000000000000000000000000000
011027526000085000OLEO P/RECICLAR 1LT                               000000000000000001000000000000000000000000000000000000000000000000000000000000
010027625001450006FUBA/LARANJA/CANELA                               000000000000000011000000000000000000000000000000000000000000000000000000000000
011027694000150030SUSPIRO MOURO 70GR                                000000000000000011000000000000000000000000000000000000000000000000000000000000
011027960000349000VERD.FOLHAS NABO                                  000000000000000001000000000000000000000000000000000000000000000000000000000000
011028028000299010MOUSSE MARACUJA UN                                000000000000000011000000000000000000000000000000000000000000000000000000000000
011028059000199010MOUSSE DE GOIABA UN                               000000000000000011000000000000000000000000000000000000000000000000000000000000
010028318001890000PEIXE FILE CORVINA K                              000000000000000001000000000000000000000000000000000000000000000000000000000000
010028431000850000PEIXE CORVINA KG                                  000000000000000001000000000000000000000000000000000000000000000000000000000000
010028448000999000FAR.MILHO CASEIRA                                 000000000000000001000000000000000000000000000000000000000000000000000000000000
010028455001429006BOLO COM BANANA KG                                000000000000000011000000000000000000000000000000000000000000000000000000000000
010028462001575006BOLONEGA MALUCA CHOC                              000000000000000011000000000000000000000000000000000000000000000000000000000000
010028530001645030BRIGADEIRO BANANA KG                              000000000000000011000000000000000000000000000000000000000000000000000000000000
010028639002000002MAIONESE DA CASA KG                               000000000000000011000000000000000000000000000000000000000000000000000000000000
010028868001919090COSTELINHA DEF.COLIN                              000000000000000011000000000000000000000000000000000000000000000000000000000000
011028929000299010CUP CAKE BRANCO RECH                              000000000000000011000000000000000000000000000000000000000000000000000000000000
010029025003500030SUSPIRO MOURO KG                                  000000000000000011000000000000000000000000000000000000000000000000000000000000
011029049000299010CUP CAKE RECH.CHOC.                               000000000000000011000000000000000000000000000000000000000000000000000000000000
010029346002099020BOLACHA DE NATA KG                                000000000000000011000000000000000000000000000000000000000000000000000000000000
011029360000299010MOUSSE CHOC.UN                                    000000000000000011000000000000000000000000000000000000000000000000000000000000
010029377002150000PAO DE LO/ROCA KG                                 000000000000000001000000000000000000000000000000000000000000000000000000000000
010029575000599000BATATA DOCE                                       000000000000000001000000000000000000000000000000000000000000000000000000000000
010029582001549007COCO E TANGERINA KG                               000000000000000011000000000000000000000000000000000000000000000000000000000000
011029605000139007CUP CAKE SIMPLES BR.                              000000000000000011000000000000000000000000000000000000000000000000000000000000
011029629000249010PIMENTA VERDE POTE                                000000000000000011000000000000000000000000000000000000000000000000000000000000
011029827000075005SALADA FRUTAS MINI                                000000000000000011000000000000000000000000000000000000000000000000000000000000
010029995001450007BOLO DE IOGURTE KG                                000000000000000011000000000000000000000000000000000000000000000000000000000000
010030052001399015PUDIM DE IOGURTE                                  000000000000000011000000000000000000000000000000000000000000000000000000000000
011030175000025003ROSCA/PAO CAS.OFERTA                              000000000000000011000000000000000000000000000000000000000000000000000000000000
010030229001499007PAO DE BATATA KG                                  000000000000000011000000000000000000000000000000000000000000000000000000000000
010030236001999010PAOZINHO KNORR KG                                 000000000000000011000000000000000000000000000000000000000000000000000000000000
010030267001499008PAO TIPO SIRIO KG                                 000000000000000011000000000000000000000000000000000000000000000000000000000000
010030373002300020PETIT FOUR LEIT.COND                              000000000000000011000000000000000000000000000000000000000000000000000000000000
010030380002500020PETIT FOUR CHOCOLATE                              000000000000000011000000000000000000000000000000000000000000000000000000000000
010030427001199007MARRON GLACE KG                                   000000000000000011000000000000000000000000000000000000000000000000000000000000
010031066002999030BRIGADEIRO DECORADO                               000000000000000011000000000000000000000000000000000000000000000000000000000000
011031097000140000EMB.PRATO PAP.N2 150                              000000000000000001000000000000000000000000000000000000000000000000000000000000
011031127000699030LEITE NINHO DECORADO                              000000000000000011000000000000000000000000000000000000000000000000000000000000
011031141000300015COPINHO BRIGADEIRO                                000000000000000011000000000000000000000000000000000000000000000000000000000000
010031165000599000PACOTAO MACA NACIONA                              000000000000000001000000000000000000000000000000000000000000000000000000000000
010031325001250090RISOLES CARNE CON KG                              000000000000000011000000000000000000000000000000000000000000000000000000000000
010031363001200005BOLO DE MILHO CASEIR                              000000000000000011000000000000000000000000000000000000000000000000000000000000
010031387002699010LUA DE MEL KG                                     000000000000000011000000000000000000000000000000000000000000000000000000000000
011031592003999120GALINHA SEMI CAIPIRA                              000000000000000011000000000000000000000000000000000000000000000000000000000000
010031622001700000ESPETO CARNE BOVINA                               000000000000000001000000000000000000000000000000000000000000000000000000000000
010031721001499000MARACUJA DOCE                                     000000000000000001000000000000000000000000000000000000000000000000000000000000
011031745000120010BRIGADEIRO MORANGO                                000000000000000011000000000000000000000000000000000000000000000000000000000000
010031882000799000FRANGO SEM MIUDOS                                 000000000000000001000000000000000000000000000000000000000000000000000000000000
010032117000699003PRODUTO OFERTA                                    000000000000000011000000000000000000000000000000000000000000000000000000000000
010032162005999012MARIA MOLE KG                                     032162000000000011000000000000000000000000000000000000000000000000000000000000
011032216000449030ACAI FROOTY MORANGO                               000000000000000011000000000000000000000000000000000000000000000000000000000000
011032308000449030ACAI FROOTY BANANA                                000000000000000011000000000000000000000000000000000000000000000000000000000000
010032445000899005CURAU DE MILHO VERDE                              000000000000000011000000000000000000000000000000000000000000000000000000000000
011032490001750090BOLINHO PRES/MUSS 50                              000000000000000011000000000000000000000000000000000000000000000000000000000000
010032506001999010COSTELA BOV. RECH KG                              000000000000000011000000000000000000000000000000000000000000000000000000000000
011032704000075003PROD.OFERTA PADARIA                               000000000000000011000000000000000000000000000000000000000000000000000000000000
010032711001549007MUSCULO KG                                        000000000000000011000000000000000000000000000000000000000000000000000000000000
010032735001549015ACEM/FRALDINHA/PALET                              000000000000000011000000000000000000000000000000000000000000000000000000000000
010032742001499000PERA PORTUGUESA                                   000000000000000001000000000000000000000000000000000000000000000000000000000000
011032988000350045MINI PANETONE 85GR                                000000000000000011000000000000000000000000000000000000000000000000000000000000
011033114000999045PANET.CHOCOLATE UN                                000000000000000011000000000000000000000000000000000000000000000000000000000000
011033183000299090CALDO CONG.GALINHA                                000000000000000011000000000000000000000000000000000000000000000000000000000000
011033206000299002CALDO QUENTE GAL.CAI                              000000000000000011000000000000000000000000000000000000000000000000000000000000
011033212000250002CALDO MOCOTO 240ML Q                              000000000000000011000000000000000000000000000000000000000000000000000000000000
011033213000250090CALDO MOCOTO 240ML                                000000000000000011000000000000000000000000000000000000000000000000000000000000
011033343000250090CALDO CONG.VERDE                                  000000000000000011000000000000000000000000000000000000000000000000000000000000
011033381000199090CALDO VERDE CONG.240                              000000000000000011000000000000000000000000000000000000000000000000000000000000
011033398000250002CALDO QUENTE FEIJAO                               000000000000000011000000000000000000000000000000000000000000000000000000000000
010033718001450007BOLO COM AMEIXA KG                                000000000000000011000000000000000000000000000000000000000000000000000000000000
010033749002000010AZEITONA FATIADA KG                               000000000000000011000000000000000000000000000000000000000000000000000000000000
010034173001200005BOLO DE MANDIOCA KG                               000000000000000011000000000000000000000000000000000000000000000000000000000000
011034265000006000EMB.DISCO B-98 5MM                                000000000000000001000000000000000000000000000000000000000000000000000000000000
010034272000999000PEIXE SARDINHA FRESC                              000000000000000001000000000000000000000000000000000000000000000000000000000000
010034289005490090BACALHAU ZARB/SAITHE                              000000000000000011000000000000000000000000000000000000000000000000000000000000
010034364000833000GLOBAL TOSCANA GKT                                000000000000000001000000000000000000000000000000000000000000000000000000000000
011034500009999000BOB.FILME PVC 38X11                               000000000000000001000000000000000000000000000000000000000000000000000000000000
010034548001499030NHOQUE GAUCHO DOCE                                000000000000000011000000000000000000000000000000000000000000000000000000000000
010034562001800000TORTA LEG/CAR/SARD K                              000000000000000001000000000000000000000000000000000000000000000000000000000000
011034807000004000EMB.PAPEL TRU.CEREJA                              000000000000000001000000000000000000000000000000000000000000000000000000000000
011034852000799000OVO PASCOA CASA G P                               000000000000000001000000000000000000000000000000000000000000000000000000000000
011035026004000120FRANGO CAIPI.PICADO                               000000000000000011000000000000000000000000000000000000000000000000000000000000
011035255000999000FORMA PANETONE                                    000000000000000001000000000000000000000000000000000000000000000000000000000000
010035279001699000CORACAO FGO CONG.KG                               000000000000000001000000000000000000000000000000000000000000000000000000000000
010035316001320007BOLO DE AMENDOIM                                  000000000000000011000000000000000000000000000000000000000000000000000000000000
011035330000199007MINI LANCHE FRANGO                                000000000000000011000000000000000000000000000000000000000000000000000000000000
011035347000250007MINI LANCHE NATURAL                               000000000000000011000000000000000000000000000000000000000000000000000000000000
010035446001799000TULIPA SEM TEMP. KG                               000000000000000001000000000000000000000000000000000000000000000000000000000000
010035545001299000CHIPA ASSADA KILO                                 000000000000000001000000000000000000000000000000000000000000000000000000000000
011035576000199020MASSA PIZZA UN                                    000000000000000011000000000000000000000000000000000000000000000000000000000000
010035637001379010COXINHA DA ASA KG                                 000000000000000011000000000000000000000000000000000000000000000000000000000000
